:100000000C942A000C9447000C9447000C94470071
:100010000C9447000C9447000C9447000C94470044
:100020000C9447000C9447000C9447000C94470034
:100030000C9447000C9447000C9447000C94470024
:100040000C9447000C9447000C9447000C94470014
:100050000C94470011241FBECFE5D4E0DEBFCDBF16
:1000600011E0A0E6B0E0EEE1F4E002C005900D92F0
:10007000A234B107D9F721E0A2E4B1E001C01D929A
:10008000A23CB207E1F70E9472010C940D020C949D
:10009000000085E080B981B18C7F81B9089594EA30
:1000A00096BF06B607FEFDCF91B1987F983071F4E8
:1000B00083B984E886BF06B607FEFDCF81B1887F8D
:1000C000883131F0803231F482E0089580E0089583
:1000D00081E0089583E0089594EA96BF06B607FE8E
:1000E000FDCF91B1987F903171F483B984E886BFD8
:1000F00006B607FEFDCF81B1887F803431F08834A9
:1001000031F482E0089580E0089581E0089583E06D
:10011000089583B984E886BF06B607FEFDCF81B196
:10012000887F883221F0803321F481E0089580E0D7
:10013000089582E0089584EC86BF06B607FEFDCFE1
:1001400083B1089584E886BF06B607FEFDCF83B16C
:10015000089584E986BF06B604FCFDCF0895EF92AA
:10016000FF920F931F93CF93DF93D62FC72F8A0150
:10017000790180EA0E944F00833011F18C2F0E9498
:100180008900823011F18D2F0E9489008230D1F0D8
:10019000C0E0D0E009C0F701EC0FFD1F80810E9494
:1001A0008900823089F02196C017D107A4F30E94FC
:1001B000A90083ED90E30197F1F700C0000005C0AE
:1001C00081E003C083E001C084E0DF91CF911F9103
:1001D0000F91FF90EF900895CF92DF92EF92FF92F0
:1001E0000F931F93CF93DF93D42FC52F7901F8017D
:1001F0001182108280EA0E944F00833041F18C2FDF
:100200000E948900823041F18D2F0E948900823046
:1002100001F181EA0E946C008330E9F0C0E0D0E097
:1002200008C06801CC0EDD1E0E949B00F601808391
:100230002196C7010197C817D9079CF3E801C80F99
:10024000D91F0E94A20088830E94A90005C081E0F6
:1002500003C083E001C084E0DF91CF911F910F9133
:10026000FF90EF90DF90CF900895EF92FF920F9361
:100270001F93CF93DF93D62FC72F8A01790180EA8E
:100280000E944F00833011F18C2F0E948900823030
:1002900011F18D2F0E9489008230D1F0C0E0D0E0B2
:1002A00009C0F701EC0FFD1F80810E948900823098
:1002B00089F02196C017D107A4F30E94A90083ED0D
:1002C00090E30197F1F700C0000005C081E003C092
:1002D00083E001C084E0DF91CF911F910F91FF90E7
:1002E000EF90089560E072EC81E090E00E94CC0114
:1002F00078940E94490080EE90E00E94DB0120E6A5
:1003000030E040E450E060E070E080EA0E94AF003E
:1003100089EF90E00E94DB0102E411E020E430E08C
:1003200040E050E061EA80EA0E94EC0060E470E0A6
:10033000C8010E94F1012FEF83ED90E3215080402E
:100340009040E1F700C0000083E191E00E94DB01F2
:1003500020E630E040E450E060E070E084EA0E9493
:1003600035018AE291E00E94DB0120E430E040E0C8
:1003700050E065EA84EA0E94EC0060E470E0C801A5
:100380000E94F1012FEF8BE792E9215080409040CD
:10039000E1F700C00000AFCF8AB188698AB980B5A3
:1003A000866880BD10BC88E089B9789408955D9B0B
:1003B000FECF8CB908950F931F93CF93DF938C01D9
:1003C000C0E0D0E003C00E94D7012196F801EC0FF5
:1003D000FD1F80818111F7CFDF91CF911F910F9188
:1003E0000895EF92FF920F931F93CF93DF937C01B9
:1003F0008B01C0E0D0E007C0F701EC0FFD1F80814A
:100400000E94D7012196C017D107B0F3DF91CF9199
:0E0410001F910F91FF90EF900895F894FFCF89
:10041E00000102030405060708090A0B0C0D0E0F56
:10042E00101112131415161718191A1B1C1D1E1F46
:10043E00202122232425262728292A2B2C2D2E2F36
:10044E00303132333435363738393A3B3C3D3E3F26
:10045E00404142434445464748494A4B4C4D4E4F16
:10046E00505152535455565758595A5B5C5D5E5F06
:10047E00606162636465666768696A6B6C6D6E6FF6
:10048E00707172737475767778797A7B7C7D7E7FE6
:10049E00577269746520546F203235364B62697419
:1004AE0020454550524F4D0A0052656164204672F8
:1004BE006F6D203235364B62697420454550524F70
:1004CE004D0A00577269746520546F20314D626970
:1004DE007420454550524F4D0A00526561642046C6
:1004EE00726F6D20314D62697420454550524F4DEB
:0204FE000A00F2
:00000001FF
